{
  "contractName": "ExpenseTracker",
  "abi": [
    {
      "inputs": [
        {
          "internalType": "address",
          "name": "_user",
          "type": "address"
        }
      ],
      "stateMutability": "nonpayable",
      "type": "constructor"
    },
    {
      "inputs": [],
      "name": "user",
      "outputs": [
        {
          "internalType": "address",
          "name": "",
          "type": "address"
        }
      ],
      "stateMutability": "view",
      "type": "function"
    },
    {
      "inputs": [
        {
          "internalType": "string",
          "name": "description",
          "type": "string"
        },
        {
          "internalType": "int256",
          "name": "value",
          "type": "int256"
        }
      ],
      "name": "addTransaction",
      "outputs": [],
      "stateMutability": "nonpayable",
      "type": "function"
    },
    {
      "inputs": [],
      "name": "getTransactions",
      "outputs": [
        {
          "components": [
            {
              "internalType": "string",
              "name": "description",
              "type": "string"
            },
            {
              "internalType": "int256",
              "name": "value",
              "type": "int256"
            }
          ],
          "internalType": "struct ExpenseTracker.TransactionEntry[]",
          "name": "",
          "type": "tuple[]"
        }
      ],
      "stateMutability": "view",
      "type": "function"
    },
    {
      "inputs": [],
      "name": "getIncome",
      "outputs": [
        {
          "internalType": "int256",
          "name": "",
          "type": "int256"
        }
      ],
      "stateMutability": "view",
      "type": "function"
    },
    {
      "inputs": [],
      "name": "getExpense",
      "outputs": [
        {
          "internalType": "int256",
          "name": "",
          "type": "int256"
        }
      ],
      "stateMutability": "view",
      "type": "function"
    }
  ],
  "bytecode": "0x608060405234801561001057600080fd5b506040516109e13803806109e18339818101604052810190610032919061008e565b80600160006101000a81548173ffffffffffffffffffffffffffffffffffffffff021916908373ffffffffffffffffffffffffffffffffffffffff16021790555050610100565b600081519050610088816100e9565b92915050565b6000602082840312156100a057600080fd5b60006100ae84828501610079565b91505092915050565b60006100c2826100c9565b9050919050565b600073ffffffffffffffffffffffffffffffffffffffff82169050919050565b6100f2816100b7565b81146100fd57600080fd5b50565b6108d28061010f6000396000f3fe608060405234801561001057600080fd5b50600436106100575760003560e01c80634f8632ba1461005c57806383920e901461007a578063872decab14610098578063b9d9b3f5146100b6578063f247e3de146100d2575b600080fd5b6100646100f0565b60405161007191906106e6565b60405180910390f35b610082610116565b60405161008f9190610701565b60405180910390f35b6100a061027b565b6040516100ad9190610723565b60405180910390f35b6100d060048036038101906100cb9190610566565b6102df565b005b6100da6103da565b6040516100e79190610723565b60405180910390f35b600160009054906101000a900473ffffffffffffffffffffffffffffffffffffffff1681565b6060600160009054906101000a900473ffffffffffffffffffffffffffffffffffffffff1673ffffffffffffffffffffffffffffffffffffffff163373ffffffffffffffffffffffffffffffffffffffff161461017257600080fd5b6000805480602002602001604051908101604052809291908181526020016000905b828210156102725783829060005260206000209060020201604051806040016040529081600082018054600181600116156101000203166002900480601f0160208091040260200160405190810160405280929190818152602001828054600181600116156101000203166002900480156102505780601f1061022557610100808354040283529160200191610250565b820191906000526020600020905b81548152906001019060200180831161023357829003601f168201915b5050505050815260200160018201548152505081526020019060010190610194565b50505050905090565b6000600160009054906101000a900473ffffffffffffffffffffffffffffffffffffffff1673ffffffffffffffffffffffffffffffffffffffff163373ffffffffffffffffffffffffffffffffffffffff16146102d757600080fd5b600354905090565b600160009054906101000a900473ffffffffffffffffffffffffffffffffffffffff1673ffffffffffffffffffffffffffffffffffffffff163373ffffffffffffffffffffffffffffffffffffffff161461033957600080fd5b600060405180604001604052808481526020018381525090506000819080600181540180825580915050600190039060005260206000209060020201600090919091909150600082015181600001908051906020019061039a92919061043e565b50602082015181600101555050600082126103c457816002600082825401925050819055506103d5565b816003600082825403925050819055505b505050565b6000600160009054906101000a900473ffffffffffffffffffffffffffffffffffffffff1673ffffffffffffffffffffffffffffffffffffffff163373ffffffffffffffffffffffffffffffffffffffff161461043657600080fd5b600254905090565b828054600181600116156101000203166002900490600052602060002090601f01602090048101928261047457600085556104bb565b82601f1061048d57805160ff19168380011785556104bb565b828001600101855582156104bb579182015b828111156104ba57825182559160200191906001019061049f565b5b5090506104c891906104cc565b5090565b5b808211156104e55760008160009055506001016104cd565b5090565b60006104fc6104f78461076f565b61073e565b90508281526020810184848401111561051457600080fd5b61051f848285610830565b509392505050565b60008135905061053681610885565b92915050565b600082601f83011261054d57600080fd5b813561055d8482602086016104e9565b91505092915050565b6000806040838503121561057957600080fd5b600083013567ffffffffffffffff81111561059357600080fd5b61059f8582860161053c565b92505060206105b085828601610527565b9150509250929050565b60006105c683836106a9565b905092915050565b6105d7816107f4565b82525050565b60006105e8826107af565b6105f281856107d2565b9350836020820285016106048561079f565b8060005b85811015610640578484038952815161062185826105ba565b945061062c836107c5565b925060208a01995050600181019050610608565b50829750879550505050505092915050565b61065b81610806565b82525050565b61066a81610806565b82525050565b600061067b826107ba565b61068581856107e3565b935061069581856020860161083f565b61069e81610874565b840191505092915050565b600060408301600083015184820360008601526106c68282610670565b91505060208301516106db6020860182610652565b508091505092915050565b60006020820190506106fb60008301846105ce565b92915050565b6000602082019050818103600083015261071b81846105dd565b905092915050565b60006020820190506107386000830184610661565b92915050565b6000604051905081810181811067ffffffffffffffff8211171561076557610764610872565b5b8060405250919050565b600067ffffffffffffffff82111561078a57610789610872565b5b601f19601f8301169050602081019050919050565b6000819050602082019050919050565b600081519050919050565b600081519050919050565b6000602082019050919050565b600082825260208201905092915050565b600082825260208201905092915050565b60006107ff82610810565b9050919050565b6000819050919050565b600073ffffffffffffffffffffffffffffffffffffffff82169050919050565b82818337600083830152505050565b60005b8381101561085d578082015181840152602081019050610842565b8381111561086c576000848401525b50505050565bfe5b6000601f19601f8301169050919050565b61088e81610806565b811461089957600080fd5b5056fea2646970667358221220acbc3378dace060e73694c761750f1c751d3ae83367279eda8a7b01efb77308a64736f6c63430007060033",
  "immutableReferences": {},
  "source": "pragma solidity ^0.7.6;\r\npragma abicoder v2;\r\n\r\ncontract ExpenseTrackerFactory {\r\n\r\n    mapping(address => ExpenseTracker) public userToContract;\r\n\r\n    function createExpenseTracker() public {\r\n        ExpenseTracker newExpenseTracker = new ExpenseTracker(msg.sender);\r\n        userToContract[msg.sender] = newExpenseTracker;\r\n    }\r\n\r\n    function getExpenseTracker() public view returns (ExpenseTracker) {\r\n        return userToContract[msg.sender];\r\n    }\r\n}\r\n\r\ncontract ExpenseTracker {\r\n\r\n    struct TransactionEntry {\r\n        string description;\r\n        int value;\r\n    }\r\n\r\n    TransactionEntry[] private entries;\r\n    address public user;\r\n    int private income;\r\n    int private expense;\r\n\r\n    modifier onlyUser() {\r\n        require(msg.sender == user);\r\n        _;\r\n    }\r\n\r\n    constructor(address _user) {\r\n        user = _user;\r\n    }\r\n\r\n    function addTransaction(string memory description, int value) public onlyUser {\r\n        TransactionEntry memory newTransactionEntry = TransactionEntry({\r\n            description: description,\r\n            value: value\r\n        });\r\n        entries.push(newTransactionEntry);\r\n\r\n        if(value >= 0){\r\n            income += value;\r\n        }\r\n        else{\r\n            expense -= value;\r\n        }\r\n    }\r\n\r\n    function getTransactions() public view onlyUser returns (TransactionEntry[] memory) {\r\n        return entries;\r\n    }\r\n\r\n    function getIncome() public view onlyUser returns (int) {\r\n        return income;\r\n    }\r\n\r\n    function getExpense() public view onlyUser returns (int) { \r\n        return expense;\r\n    }\r\n\r\n}",
  "sourcePath": "D:\\Files\\Blockchain\\Expense-Tracker-Truffle-React\\expense-tracker-truffle\\contracts\\ExpenseTracker.sol",
  "compiler": {
    "name": "solc",
    "version": "0.7.6+commit.7338295f.Emscripten.clang"
  },
  "schemaVersion": "3.4.3",
  "updatedAt": "2021-12-28T12:35:32.562Z",
  "devdoc": {
    "kind": "dev",
    "methods": {},
    "version": 1
  },
  "userdoc": {
    "kind": "user",
    "methods": {},
    "version": 1
  }
}